:020000040800F2
:10000000000002208D090008170A00081D0A0008D8
:10001000310A0008370A00083D0A00080000000005
:10002000000000000000000000000000430A00087B
:10003000490A0008000000004F0A0008550A00089D
:10004000610A00086D0A0008790A0008850A00089C
:10005000910A00089D0A0008A90A0008B50A0008CC
:10006000C10A0008CD0A0008D90A0008E50A0008FC
:10007000F10A0008FD0A0008090B0008150B00082A
:10008000210B00082D0B0008390B0008450B000858
:10009000510B00085D0B0008690B0008750B000888
:1000A000810B00088D0B0008990B0008A50B0008B8
:1000B000B10B0008BD0B0008C90B0008D50B0008E8
:1000C000E10B0008ED0B0008F90B0008050C000817
:1000D000110C00081D0C0008290C0008350C000844
:1000E000410C00084D0C0008590C0008650C000874
:1000F000710C00087D0C0008890C0008950C0008A4
:10010000A10C0008AD0C0008B90C0008C50C0008D3
:10011000D10C0008DD0C0008E90C0008F50C000803
:10012000010D00080D0D0008190D0008250D00082F
:10013000310D00083D0D0008490D0008550D00085F
:10014000610D00086D0D0008790D0008850D00088F
:10015000910D00089D0D0008A90D0008B50D0008BF
:10016000C10D0008CD0D0008D90D0008E50D0008EF
:10017000F10D0008FD0D0008090E0008150E00081D
:10018000210E00082D0E000800000000390E0008A6
:100190000000000000000000450E00080000000004
:1001A0000000000000000000510E00085D0E000875
:1001B000690E0008750E0008810E00088D0E0008FB
:1001C00080B584B002AF7860084611461A460346EF
:1001D0007B800B467B7013463B70786800F067F8B5
:1001E0000346002B0BD038787A7879883B7D0193D1
:1001F0003B7C00930346786800F0B4F800E000BF51
:100200000837BD4680BD80B586B002AF786008462D
:1002100011461A4603467B800B467B7013463B70A3
:10022000786800F044F80346002B3CD00023FB60C4
:100230002AE07A88FB6842FA03F303F00103002BFB
:100240001ED0FB68DA087B68083253F82230FA685F
:1002500002F0070292000F2101FA02F2D24313408A
:10026000397FFA6802F00702920001FA02F21146A1
:10027000FA68D20819437B68083243F8221000E07C
:1002800000BFFB680133FB60FB680F2BD1D97A7884
:1002900079883B7E01933B7800931346022278686D
:1002A00000F060F800E000BF1037BD4680BD80B5AB
:1002B00082B000AF78607B68224A934203D1214824
:1002C00000F03AFA39E07B681F4A934203D11E4896
:1002D00000F032FA31E07B681C4A934203D11B489C
:1002E00000F02AFA29E07B68194A934203D11848A2
:1002F00000F022FA21E07B68164A934203D11548A8
:1003000000F01AFA19E07B68134A934203D11248AD
:1003100000F012FA11E07B68104A934203D10F48B3
:1003200000F00AFA09E07B680D4A934203D10C48B9
:1003300000F002FA01E0002300E00123184608372C
:10034000BD4680BD0000024000040240000802409B
:10035000000C02400010024000140240001802404D
:10036000001C024080B584B000AF7860084611469A
:100370001A4603467B800B467B7013463B707868B9
:1003800000F0CAF90346BB730023FB7367E07A8869
:10039000FB7B42FA03F303F00103002B5BD0BB7B32
:1003A000334A32F813301AB2FB7B012101FA03F30E
:1003B0001BB213431AB2BB7B91B22D4A22F8131021
:1003C0007B68DB68FA7B5200032101FA02F2D24318
:1003D0001340397EFA7B520001FA02F21A437B681D
:1003E000DA607B681A68FB7B5B00032101FA03F388
:1003F000DB4313407978FA7B520001FA02F21A4388
:100400007B681A607B78012B02D07B78022B23D18A
:100410007B685B68FA7B012101FA02F292B2D24357
:1004200013403978FA7B01FA02F292B21A437B68E0
:100430005A607B689A68FB7B5B00032101FA03F337
:10044000DB431340397FFA7B520001FA02F21A4370
:100450007B689A6000E000BFFB7B0133FB73FB7B92
:100460000F2B94D900BF00BF1037BD4680BD00BF21
:100470000400002080B584B000AF78600B467B801C
:10048000786800F049F90346BB730023FB7327E04B
:100490007A88FB7B42FA03F303F00103002B1CD0A4
:1004A0007B681B68FA7B5200032101FA02F21A43AF
:1004B0007B681A60BB7B0E4A32F813301AB2FB7BA2
:1004C000012101FA03F31BB2DB431BB213401AB242
:1004D000BB7B91B2064A22F81310FB7B0133FB73FE
:1004E000FB7B0F2BD4D900BF00BF1037BD4680BDAA
:1004F0000400002080B485B000AF78600B467B809C
:100500000023FB7315E07A88FB7B42FA03F303F0C8
:100510000103002B0AD07B681B68FA7B5200032181
:1005200001FA02F2D2431A407B681A60FB7B013366
:10053000FB73FB7B0F2BE6D900BF00BF1437BD4612
:1005400080BC704780B485B000AF78600B467B807C
:100550000023FB731BE07A88FB7B42FA03F303F072
:100560000103002B10D07B681B68FA7B520003212B
:1005700001FA02F2D2431340FA7B5200012101FA40
:1005800002F21A437B681A60FB7B0133FB73FB7B2F
:100590000F2BE0D900BF00BF1437BD4680BC7047A9
:1005A00080B485B000AF78600B467B800023FB737E
:1005B00014E07A88FB7B42FA03F303F00103002B7B
:1005C00009D07B681B68FA7B5200032101FA02F212
:1005D0001A437B681A60FB7B0133FB73FB7B0F2B99
:1005E000E7D900BF00BF1437BD4680BC704780B458
:1005F00085B000AF78600B467B800023FB731DE065
:100600007A88FB7B42FA03F303F00103002B11D03D
:100610007B681B68FA7B5200032101FA02F2D24385
:100620001340FA7B5200022101FA02F21A437B685E
:100630001A6000E000BFFB7B0133FB73FB7B0F2BD9
:10064000DED900BF00BF1437BD4680BC704780B400
:1006500085B000AF78600B467B8013467B7000232B
:10066000FB731DE07A88FB7B42FA03F303F001037E
:10067000002B11D07B68DB68FA7B5200032101FA62
:1006800002F2D24313407978FA7B520001FA02F267
:100690001A437B68DA6000E000BFFB7B0133FB7329
:1006A000FB7B0F2BDED900BF00BF1437BD4680BCDB
:1006B000704780B485B000AF78600B467B807B8844
:1006C00043F48033FB607B68FA68DA617A887B6880
:1006D000DA617B68FA68DA617B68DB697B68DB6911
:1006E00000BF1437BD4680BC704780B485B000AFF2
:1006F0000346FB800023FB8105E0FB890133FB817E
:10070000FB885B08FB80FB88012BF6D8FB89184629
:100710001437BD4680BC704780B483B000AF7860AA
:100720007B6803F13F4303F57E039B0A9BB21846A7
:100730000C37BD4680BC704780B582B000AF786092
:100740007868FFF7E9FF03461A46012303FA02F22D
:10075000044B1B6B1146034A0B43136300BF08375E
:10076000BD4680BD0038024080B582B000AF7860E1
:100770007868FFF7D1FF03461A4601239340DA4316
:10078000044B1B6B1146034A0B40136300BF083731
:10079000BD4680BD0038024080B582B000AF7860B1
:1007A0007868FFF7B9FF03461A46034B33F8123057
:1007B00018460837BD4680BD0400002080B582B0D1
:1007C00000AF78607868FFF7A7FF03461A46044B2E
:1007D00033F81230DB439BB218460837BD4680BD64
:1007E0000400002080B500AF00F018F8FEE700001C
:1007F00080B483B000AF00237B6002E07B680133EC
:100800007B607B68044A9342F8D900BF00BF0C3775
:10081000BD4680BC704700BF8FD0030080B582B05A
:1008200002AF032301930023009300230122202120
:100830000448FFF7C5FC0121012000F05DF800BF6E
:10084000BD4680BD0000024080B400AF274B1B684E
:10085000264A43F00103136000BF244B1B6803F0DA
:100860000203002BF9D0214B1B6C204A43F080532C
:1008700013641F4B1B681E4A43F4404313601D4B17
:1008800040F205721A60194B184A9B689360174B27
:100890009B68164A43F4A0539360144B9B68134A19
:1008A00043F400439360114B42F608525A600F4BD9
:1008B0001B680E4A43F08073136000BF0B4B1B682C
:1008C00003F00073002BF9D0084B9B68074A43F0F4
:1008D0000203936000BF054B9B6803F00C03082BD9
:1008E000F9D100BF00BFBD4680BC70470038024050
:1008F00000700040003C024080B483B000AF7860DC
:100900003960074B00221A607A683B689A4202D02D
:10091000034B01221A6000BF0C37BD4680BC7047F4
:100920000000002080B485B000AF786039600023FB
:10093000FB600FE000BF0C4B1B6803F08003002B33
:10094000F9D07B685A1C7A601A78074B5A60FB68AA
:100950000133FB60FA683B689A42EBDB3B68184660
:100960001437BD4680BC70470044004080B483B05B
:1009700000AF786000BF7B685A1E7A60002BFAD106
:1009800000BF00BF0C37BD4680BC704780B586B045
:1009900000AF1A4A1A4BD31A7B60194B7B61194B73
:1009A0003B610023FB600AE03A69531C3B617B69B1
:1009B000591C796112781A70FB680133FB60FA6880
:1009C0007B689A42F0D3104A104BD31A7B600F4BCE
:1009D0007B610023BB6007E07B695A1C7A610022BF
:1009E0001A70BB680133BB60BA687B689A42F3D364
:1009F000FFF7F8FE00BF1837BD4680BD0400002099
:100A000004000020A40E00081C00002004000020A8
:100A100080B400AFFEE780B400AFFEE780B500AF62
:100A200013210248FFF77EFFFEE700BF980E000883
:100A300080B400AFFEE780B400AFFEE780B400AF43
:100A4000FEE780B400AFFEE780B400AFFEE780B4FD
:100A500000AFFEE780B400AF00BFBD4680BC70476A
:100A600080B400AF00BFBD4680BC704780B400AF0B
:100A700000BFBD4680BC704780B400AF00BFBD461C
:100A800080BC704780B400AF00BFBD4680BC7047DB
:100A900080B400AF00BFBD4680BC704780B400AFDB
:100AA00000BFBD4680BC704780B400AF00BFBD46EC
:100AB00080BC704780B400AF00BFBD4680BC7047AB
:100AC00080B400AF00BFBD4680BC704780B400AFAB
:100AD00000BFBD4680BC704780B400AF00BFBD46BC
:100AE00080BC704780B400AF00BFBD4680BC70477B
:100AF00080B400AF00BFBD4680BC704780B400AF7B
:100B000000BFBD4680BC704780B400AF00BFBD468B
:100B100080BC704780B400AF00BFBD4680BC70474A
:100B200080B400AF00BFBD4680BC704780B400AF4A
:100B300000BFBD4680BC704780B400AF00BFBD465B
:100B400080BC704780B400AF00BFBD4680BC70471A
:100B500080B400AF00BFBD4680BC704780B400AF1A
:100B600000BFBD4680BC704780B400AF00BFBD462B
:100B700080BC704780B400AF00BFBD4680BC7047EA
:100B800080B400AF00BFBD4680BC704780B400AFEA
:100B900000BFBD4680BC704780B400AF00BFBD46FB
:100BA00080BC704780B400AF00BFBD4680BC7047BA
:100BB00080B400AF00BFBD4680BC704780B400AFBA
:100BC00000BFBD4680BC704780B400AF00BFBD46CB
:100BD00080BC704780B400AF00BFBD4680BC70478A
:100BE00080B400AF00BFBD4680BC704780B400AF8A
:100BF00000BFBD4680BC704780B400AF00BFBD469B
:100C000080BC704780B400AF00BFBD4680BC704759
:100C100080B400AF00BFBD4680BC704780B400AF59
:100C200000BFBD4680BC704780B400AF00BFBD466A
:100C300080BC704780B400AF00BFBD4680BC704729
:100C400080B400AF00BFBD4680BC704780B400AF29
:100C500000BFBD4680BC704780B400AF00BFBD463A
:100C600080BC704780B400AF00BFBD4680BC7047F9
:100C700080B400AF00BFBD4680BC704780B400AFF9
:100C800000BFBD4680BC704780B400AF00BFBD460A
:100C900080BC704780B400AF00BFBD4680BC7047C9
:100CA00080B400AF00BFBD4680BC704780B400AFC9
:100CB00000BFBD4680BC704780B400AF00BFBD46DA
:100CC00080BC704780B400AF00BFBD4680BC704799
:100CD00080B400AF00BFBD4680BC704780B400AF99
:100CE00000BFBD4680BC704780B400AF00BFBD46AA
:100CF00080BC704780B400AF00BFBD4680BC704769
:100D000080B400AF00BFBD4680BC704780B400AF68
:100D100000BFBD4680BC704780B400AF00BFBD4679
:100D200080BC704780B400AF00BFBD4680BC704738
:100D300080B400AF00BFBD4680BC704780B400AF38
:100D400000BFBD4680BC704780B400AF00BFBD4649
:100D500080BC704780B400AF00BFBD4680BC704708
:100D600080B400AF00BFBD4680BC704780B400AF08
:100D700000BFBD4680BC704780B400AF00BFBD4619
:100D800080BC704780B400AF00BFBD4680BC7047D8
:100D900080B400AF00BFBD4680BC704780B400AFD8
:100DA00000BFBD4680BC704780B400AF00BFBD46E9
:100DB00080BC704780B400AF00BFBD4680BC7047A8
:100DC00080B400AF00BFBD4680BC704780B400AFA8
:100DD00000BFBD4680BC704780B400AF00BFBD46B9
:100DE00080BC704780B400AF00BFBD4680BC704778
:100DF00080B400AF00BFBD4680BC704780B400AF78
:100E000000BFBD4680BC704780B400AF00BFBD4688
:100E100080BC704780B400AF00BFBD4680BC704747
:100E200080B400AF00BFBD4680BC704780B400AF47
:100E300000BFBD4680BC704780B400AF00BFBD4658
:100E400080BC704780B400AF00BFBD4680BC704717
:100E500080B400AF00BFBD4680BC704780B400AF17
:100E600000BFBD4680BC704780B400AF00BFBD4628
:100E700080BC704780B400AF00BFBD4680BC7047E7
:100E800080B400AF00BFBD4680BC704780B400AFE7
:100E900000BFBD4680BC7047486172644661756C96
:040EA000740A0D00C3
:020000042000DA
:0400000000000000FC
:040000050800098D59
:00000001FF
