:020000040800F2
:100000000000022059030008E7030008ED03000880
:1000100001040008070400080D04000800000000A7
:1000200000000000000000000000000013040008B1
:1000300019040008000000001D0D0008E10C000874
:100040001F0400082B0400083704000843040008BC
:100050004F0400085B0400086704000873040008EC
:100060007F0400088B04000897040008A30400081C
:10007000AF040008BB040008C7040008D30400084C
:10008000DF040008EB040008F7040008030500087B
:100090000F0500081B0500082705000833050008A8
:1000A0003F0500084B0500085705000863050008D8
:1000B0006F0500087B050008870500089305000808
:1000C0009F050008AB050008B7050008C305000838
:1000D000CF050008DB050008E7050008F305000868
:1000E000FF0500080B060008170600082306000895
:1000F0002F0600083B0600084706000853060008C4
:100100005F0600086B0600087706000883060008F3
:100110008F0600089B060008A7060008B306000823
:10012000BF060008CB060008D7060008E306000853
:10013000EF060008FB060008070700081307000881
:100140001F0700082B0700083707000843070008AF
:100150004F0700085B0700086707000873070008DF
:100160007F0700088B07000897070008A30700080F
:10017000AF070008BB070008C7070008D30700083F
:10018000DF070008EB07000800000000F707000881
:10019000000000000000000003080008000000004C
:1001A00000000000000000000F0800081B08000805
:1001B00027080008330800083F0800084B0800081B
:1001C00080B483B000AF786000BF7B685A1E7A604D
:1001D000002BFAD100BF00BF0C37BD4680BC704772
:1001E00080B582B002AF0323019300230093002364
:1001F00001224FF40051074800F0FCFD064B074A6E
:100200001A600721064800F025F80648FFF7D8FFD6
:10021000F7E700BF00080240F40000209D0200083C
:100220000C17000820A1070080B483B000AF7860ED
:100230003960074B00221A607A683B689A4202D004
:10024000034B01221A6000BF0C37BD4680BC7047CB
:100250000000002080B485B000AF786039600023D2
:10026000FB600FE000BF0C4B1B6803F08003002B0A
:10027000F9D07B685A1C7A601A78074B5A60FB6881
:100280000133FB60FA683B689A42EBDB3B68184637
:100290001437BD4680BC70470044004080B483B032
:1002A00000AF0346FB7100BF064B1B6803F08003E1
:1002B000002BF9D0034AFB79536000BF0C37BD46D1
:1002C00080BC70470044004080B400AF1F4B1B6BE4
:1002D0001E4A43F0010313631D4B1B681C4A23F0A5
:1002E000100313601A4B1B68194A43F02003136074
:1002F000174B1B6A164A43F480731362144B1B6A34
:10030000134A43F400731362114B1B6A104A43F4FF
:10031000806313620E4B1B6A0D4A23F40063136261
:100320000A4B1B6C094A43F400331364094B8B22BC
:100330009A60084B0822DA60064BDB68054A43F4F2
:100340000053D36000BFBD4680BC704700380240F8
:10035000000002400044004080B586B000AF1B4A58
:100360001B4BD31A7B601A4B7B611A4B3B610023FA
:10037000FB600AE03A69531C3B617B69591C796157
:1003800012781A70FB680133FB60FA687B689A4246
:10039000F0D3114A114BD31A7B60104B7B610023C1
:1003A000BB6007E07B695A1C7A6100221A70BB6847
:1003B0000133BB60BA687B689A42F3D3FFF784FFCE
:1003C000FFF70EFF00BF1837BD4680BD08000020B4
:1003D0000400002020170008F80000200C00002076
:1003E00080B400AFFEE780B400AFFEE780B500AF99
:1003F00013210248FFF72EFFFEE700BF1417000885
:1004000080B400AFFEE780B400AFFEE780B400AF79
:10041000FEE780B400AFFEE780B400AFFEE780B433
:1004200000AF00BFBD4680BC704780B400AF00BFC6
:10043000BD4680BC704780B400AF00BFBD4680BCE5
:10044000704780B400AF00BFBD4680BC704780B429
:1004500000AF00BFBD4680BC704780B400AF00BF96
:10046000BD4680BC704780B400AF00BFBD4680BCB5
:10047000704780B400AF00BFBD4680BC704780B4F9
:1004800000AF00BFBD4680BC704780B400AF00BF66
:10049000BD4680BC704780B400AF00BFBD4680BC85
:1004A000704780B400AF00BFBD4680BC704780B4C9
:1004B00000AF00BFBD4680BC704780B400AF00BF36
:1004C000BD4680BC704780B400AF00BFBD4680BC55
:1004D000704780B400AF00BFBD4680BC704780B499
:1004E00000AF00BFBD4680BC704780B400AF00BF06
:1004F000BD4680BC704780B400AF00BFBD4680BC25
:10050000704780B400AF00BFBD4680BC704780B468
:1005100000AF00BFBD4680BC704780B400AF00BFD5
:10052000BD4680BC704780B400AF00BFBD4680BCF4
:10053000704780B400AF00BFBD4680BC704780B438
:1005400000AF00BFBD4680BC704780B400AF00BFA5
:10055000BD4680BC704780B400AF00BFBD4680BCC4
:10056000704780B400AF00BFBD4680BC704780B408
:1005700000AF00BFBD4680BC704780B400AF00BF75
:10058000BD4680BC704780B400AF00BFBD4680BC94
:10059000704780B400AF00BFBD4680BC704780B4D8
:1005A00000AF00BFBD4680BC704780B400AF00BF45
:1005B000BD4680BC704780B400AF00BFBD4680BC64
:1005C000704780B400AF00BFBD4680BC704780B4A8
:1005D00000AF00BFBD4680BC704780B400AF00BF15
:1005E000BD4680BC704780B400AF00BFBD4680BC34
:1005F000704780B400AF00BFBD4680BC704780B478
:1006000000AF00BFBD4680BC704780B400AF00BFE4
:10061000BD4680BC704780B400AF00BFBD4680BC03
:10062000704780B400AF00BFBD4680BC704780B447
:1006300000AF00BFBD4680BC704780B400AF00BFB4
:10064000BD4680BC704780B400AF00BFBD4680BCD3
:10065000704780B400AF00BFBD4680BC704780B417
:1006600000AF00BFBD4680BC704780B400AF00BF84
:10067000BD4680BC704780B400AF00BFBD4680BCA3
:10068000704780B400AF00BFBD4680BC704780B4E7
:1006900000AF00BFBD4680BC704780B400AF00BF54
:1006A000BD4680BC704780B400AF00BFBD4680BC73
:1006B000704780B400AF00BFBD4680BC704780B4B7
:1006C00000AF00BFBD4680BC704780B400AF00BF24
:1006D000BD4680BC704780B400AF00BFBD4680BC43
:1006E000704780B400AF00BFBD4680BC704780B487
:1006F00000AF00BFBD4680BC704780B400AF00BFF4
:10070000BD4680BC704780B400AF00BFBD4680BC12
:10071000704780B400AF00BFBD4680BC704780B456
:1007200000AF00BFBD4680BC704780B400AF00BFC3
:10073000BD4680BC704780B400AF00BFBD4680BCE2
:10074000704780B400AF00BFBD4680BC704780B426
:1007500000AF00BFBD4680BC704780B400AF00BF93
:10076000BD4680BC704780B400AF00BFBD4680BCB2
:10077000704780B400AF00BFBD4680BC704780B4F6
:1007800000AF00BFBD4680BC704780B400AF00BF63
:10079000BD4680BC704780B400AF00BFBD4680BC82
:1007A000704780B400AF00BFBD4680BC704780B4C6
:1007B00000AF00BFBD4680BC704780B400AF00BF33
:1007C000BD4680BC704780B400AF00BFBD4680BC52
:1007D000704780B400AF00BFBD4680BC704780B496
:1007E00000AF00BFBD4680BC704780B400AF00BF03
:1007F000BD4680BC704780B400AF00BFBD4680BC22
:10080000704780B400AF00BFBD4680BC704780B465
:1008100000AF00BFBD4680BC704780B400AF00BFD2
:10082000BD4680BC704780B400AF00BFBD4680BCF1
:10083000704780B400AF00BFBD4680BC704780B435
:1008400000AF00BFBD4680BC704780B400AF00BFA2
:10085000BD4680BC704700BF80B483B000AF0C4B76
:100860007B607B681B6843F480327B681A607B681E
:100870001B6843F400327B681A607B681B6843F492
:1008800080227B681A6000BF0C37BD4680BC704771
:1008900024ED00E080B485B000AF0346FB710E4B41
:1008A000FB600023FB720DE0FA7A0C4913469B00B3
:1008B00013449B000B441B68FA68D31AFB60FB7A55
:1008C0000133FB72FA7AFB799A42EDD3FB68184642
:1008D0001437BD4680BC7047FCFF00200C00002090
:1008E000094B1B781846FFF7D5FF0346184600F062
:1008F000ABF84FF47A7000F0ACF800F01FF9034B3E
:100900005B6A984700BF00BFD80000200C000020A1
:1009100090B587B000AFF860B9607A603B60484B33
:100920001B78002B01D1FFF797FF454B1B780A2B53
:1009300001D9002380E0424B1B78414A12781446CB
:100940001846FFF7A7FF02463E4923469B00234473
:100950009B000B4404331A60394B1B781946394A03
:100960000B469B000B449B0013440C3300221A706F
:10097000334B1B781846FA68324903469B00034400
:100980009B000B4410331A602D4B1B7819462D4ADF
:100990000B469B000B449B0013447A681A60284B5B
:1009A0001B781946274A0B469B000B449B001344B7
:1009B00004331B687B617B69043B7B617B694FF07F
:1009C00080721A607B69043B7B611D4B1B78194662
:1009D0001C4A0B469B000B449B00134410331B68BE
:1009E0001A467B691A607B69043B7B617B696FF007
:1009F00002021A6000233B6108E07B69043B7B61D3
:100A00007B6900221A603B6901333B613B690C2B17
:100A1000F3DD0B4B1B7818467A690A4903469B00A5
:100A200003449B000B4404331A60054B1B780133CD
:100A3000DAB2034B1A70012318461C37BD4690BD2D
:100A4000D80000200C000020034683F3088870477C
:100A500000BF80B487B000AF7860134B7B61134B4D
:100A60003B6143F67F63FB607B6900221A607B6910
:100A70001A68FB681A437B691A603B691B6843F07C
:100A800002023B691A603B691B6843F004023B6940
:100A90001A603B691B6843F001023B691A6000BFA2
:100AA0001C37BD4680BC704714E000E010E000E059
:100AB00080B582B000AF786072B600BF134B1B7870
:100AC000002B1CD0124B1A68104B1B7818467B6801
:100AD0001A44104903469B0003449B000B4408330F
:100AE0001A600A4B1B7819460A4A0B469B000B44B6
:100AF0009B0013440C33FF221A7000F00DF862B60D
:100B000000BF00BF0837BD4680BD00BF0400002005
:100B1000D40000200C00002080B483B000AF064B4E
:100B20007B607B681B6843F080527B681A6000BF63
:100B30000C37BD4680BC704704ED00E000B500F006
:100B40000AF880F309885DF804EB4FF0020080F3A7
:100B50001488704700BF80B400AF074B1B7819465C
:100B6000064A0B469B000B449B00134404331B684E
:100B70001846BD4680BC7047040000200C000020D1
:100B800080B483B000AF7860084B1B781946084AE0
:100B90000B469B000B449B00134404337A681A6095
:100BA00000BF0C37BD4680BC704700BF040000206A
:100BB0000C00002080B483B000AFFF237B600023D3
:100BC0003B6027E01D4B1B780133DAB21B4B1A70D8
:100BD0001A4B1B781A4A1278B3FBF2F101FB02F2AE
:100BE0009B1ADAB2154B1A70144B1B781946154A2A
:100BF0000B469B000B449B0013440C331B787B601B
:100C00007B68002B03D10D4B1B78002B09D13B686F
:100C100001333B600A4B1B781A463B689342D1DB99
:100C200000E000BF7B68002B02D0044B00221A704A
:100C300000BF0C37BD4680BC704700BF04000020D9
:100C4000D80000200C00002080B400AF044B1B68CB
:100C50000133034A136000BFBD4680BC704700BF2C
:100C6000D400002080B483B000AF01237B6024E077
:100C700018497A6813469B0013449B000B440C33BD
:100C80001B78002B16D013497A6813469B00134437
:100C90009B000B4408331A680F4B1B689A4209D11A
:100CA0000C497A6813469B0013449B000B440C3399
:100CB00000221A707B6801337B60084B1B781A4650
:100CC0007B689342D4DB00BF00BF0C37BD4680BCBD
:100CD000704700BF0C000020D4000020D800002086
:100CE00080B582B000AF0B4B7B60FFF7ADFFFFF725
:100CF000B9FF7B681B6843F080527B681A60064B23
:100D00005B69054A83F00203536100BF0837BD46A3
:100D100080BD00BF04ED00E000000240EFF3098059
:100D200020E9F00F00B5FFF72BFFFFF743FFFFF7B8
:100D300012FFB0E8F00F80F309885DF804EB70470C
:100D400000BF00BF80B400AF274B1B68264A43F0AA
:100D50000103136000BF244B1B6803F00203002B48
:100D6000F9D0214B1B6C204A43F0805313641F4B76
:100D70001B681E4A43F4404313601D4B40F205724A
:100D80001A60194B184A9B689360174B9B68164A68
:100D900043F4A0539360144B9B68134A43F40043FD
:100DA0009360114B42F608525A600F4B1B680E4A73
:100DB00043F08073136000BF0B4B1B6803F000739C
:100DC000002BF9D0084B9B68074A43F0020393605D
:100DD00000BF054B9B6803F00C03082BF9D100BF43
:100DE00000BFBD4680BC7047003802400070004024
:100DF000003C024080B584B002AF786008461146DE
:100E00001A4603467B800B467B7013463B7078681E
:100E100000F067F80346002B0BD038787A78798891
:100E20003B7D01933B7C00930346786800F0B4F867
:100E300000E000BF0837BD4680BD80B586B002AF78
:100E40007860084611461A4603467B800B467B7045
:100E500013463B70786800F044F80346002B3CD002
:100E60000023FB602AE07A88FB6842FA03F303F070
:100E70000103002B1ED0FB68DA087B68083253F8A8
:100E80002230FA6802F0070292000F2101FA02F202
:100E9000D2431340397FFA6802F00702920001FA48
:100EA00002F21146FA68D20819437B68083243F807
:100EB000221000E000BFFB680133FB60FB680F2BD2
:100EC000D1D97A7879883B7E01933B780093134699
:100ED0000222786800F060F800E000BF1037BD46DD
:100EE00080BD80B582B000AF78607B68224A9342B3
:100EF00003D1214800F03AFA39E07B681F4A934257
:100F000003D11E4800F032FA31E07B681C4A93425C
:100F100003D11B4800F02AFA29E07B68194A934262
:100F200003D1184800F022FA21E07B68164A934268
:100F300003D1154800F01AFA19E07B68134A93426E
:100F400003D1124800F012FA11E07B68104A934274
:100F500003D10F4800F00AFA09E07B680D4A93427A
:100F600003D10C4800F002FA01E0002300E0012365
:100F700018460837BD4680BD00000240000402400C
:100F800000080240000C0240001002400014024021
:100F900000180240001C024080B584B000AF7860A9
:100FA000084611461A4603467B800B467B70134663
:100FB0003B70786800F0CAF90346BB730023FB73EB
:100FC00067E07A88FB7B42FA03F303F00103002B0E
:100FD0005BD0BB7B334A32F813301AB2FB7B012162
:100FE00001FA03F31BB213431AB2BB7B91B22D4A31
:100FF00022F813107B68DB68FA7B5200032101FAA8
:1010000002F2D2431340397EFA7B520001FA02F217
:101010001A437B68DA607B681A68FB7B5B000321FC
:1010200001FA03F3DB4313407978FA7B520001FAAB
:1010300002F21A437B681A607B78012B02D07B781E
:10104000022B23D17B685B68FA7B012101FA02F253
:1010500092B2D24313403978FA7B01FA02F292B28B
:101060001A437B685A607B689A68FB7B5B000321AC
:1010700001FA03F3DB431340397FFA7B520001FA94
:1010800002F21A437B689A6000E000BFFB7B0133E9
:10109000FB73FB7B0F2B94D900BF00BF1037BD46FD
:1010A00080BD00BFDC00002080B584B000AF786058
:1010B0000B467B80786800F049F90346BB73002338
:1010C000FB7327E07A88FB7B42FA03F303F001030A
:1010D000002B1CD07B681B68FA7B5200032101FAAD
:1010E00002F21A437B681A60BB7B0E4A32F8133057
:1010F0001AB2FB7B012101FA03F31BB2DB431BB2E3
:1011000013401AB2BB7B91B2064A22F81310FB7B44
:101110000133FB73FB7B0F2BD4D900BF00BF10370B
:10112000BD4680BDDC00002080B485B000AF786093
:101130000B467B800023FB7315E07A88FB7B42FA29
:1011400003F303F00103002B0AD07B681B68FA7BD2
:101150005200032101FA02F2D2431A407B681A605E
:10116000FB7B0133FB73FB7B0F2BE6D900BF00BF7A
:101170001437BD4680BC704780B485B000AF78603E
:101180000B467B800023FB731BE07A88FB7B42FAD3
:1011900003F303F00103002B10D07B681B68FA7B7C
:1011A0005200032101FA02F2D2431340FA7B5200AB
:1011B000012101FA02F21A437B681A60FB7B0133BA
:1011C000FB73FB7B0F2BE0D900BF00BF1437BD467C
:1011D00080BC704780B485B000AF78600B467B80E0
:1011E0000023FB7314E07A88FB7B42FA03F303F0DD
:1011F0000103002B09D07B681B68FA7B5200032196
:1012000001FA02F21A437B681A60FB7B0133FB731D
:10121000FB7B0F2BE7D900BF00BF1437BD4680BC56
:10122000704780B485B000AF78600B467B800023A8
:10123000FB731DE07A88FB7B42FA03F303F00103A2
:10124000002B11D07B681B68FA7B5200032101FA46
:1012500002F2D2431340FA7B5200022101FA02F259
:101260001A437B681A6000E000BFFB7B0133FB730D
:10127000FB7B0F2BDED900BF00BF1437BD4680BCFF
:10128000704780B485B000AF78600B467B80134612
:101290007B700023FB731DE07A88FB7B42FA03F32B
:1012A00003F00103002B11D07B68DB68FA7B52004E
:1012B000032101FA02F2D24313407978FA7B5200FB
:1012C00001FA02F21A437B68DA6000E000BFFB7BA0
:1012D0000133FB73FB7B0F2BDED900BF00BF14373C
:1012E000BD4680BC704780B485B000AF78600B46C7
:1012F0007B807B8843F48033FB607B68FA68DA612B
:101300007A887B68DA617B68FA68DA617B68DB6916
:101310007B68DB6900BF1437BD4680BC704780B472
:1013200085B000AF0346FB800023FB8105E0FB890D
:101330000133FB81FB885B08FB80FB88012BF6D81F
:10134000FB8918461437BD4680BC704780B483B013
:1013500000AF78607B6803F13F4303F57E039B0A8F
:101360009BB218460C37BD4680BC704780B582B032
:1013700000AF78607868FFF7E9FF03461A4601235B
:1013800003FA02F2044B1B6B1146034A0B4313632F
:1013900000BF0837BD4680BD0038024080B582B02E
:1013A00000AF78607868FFF7D1FF03461A46012343
:1013B0009340DA43044B1B6B1146034A0B40136303
:1013C00000BF0837BD4680BD0038024080B582B0FE
:1013D00000AF78607868FFF7B9FF03461A46034B01
:1013E00033F8123018460837BD4680BDDC000020B7
:1013F00080B582B000AF78607868FFF7A7FF03463A
:101400001A46044B33F81230DB439BB218460837B8
:10141000BD4680BDDC00002080B582B000AF034631
:10142000FB71FB790A2B03D1084B1B680D209847F1
:10143000064B1B68002B04D0044B1B68FA7910463E
:10144000984700BF0837BD4680BD00BFF4000020AC
:101450000FB480B58EB000AF0023BB6200237B6267
:1014600007F144033B6143E13B6C1B78252B40F0C3
:1014700035810023BB623B6C01331B78302B04D1D8
:101480000123BB623B6C01333B6400237B6218E1A8
:101490003B6C1B78252B51D0252BC0F2FF80782B7D
:1014A00000F3FC80582BC0F2F980583B202B00F24F
:1014B000F58001A252F823F05B1500089D16000884
:1014C0009D1600089D1600089D1600089D16000830
:1014D0009D1600089D1600089D1600089D16000820
:1014E0009D160008491500085B1500089D160008A8
:1014F0009D1600089D1600089D1600089D16000800
:101500009D1600089D1600089D1600089D160008EF
:101510009D1600089D1600089D1600089D160008DF
:101520009D160008791600089D1600089D160008F3
:101530009D1600089D1600085B1500083B6C1B7883
:101540001846FFF769FFD0E03B691A1D3A611B6836
:10155000DBB21846FFF760FFC7E00023FB613B6981
:101560001A1D3A611B687B633B6C1B78642B0AD1A4
:101570000A233B627B6B002B07DA7B6B5B427B634E
:101580000123FB6101E010233B6200233B6316E073
:101590003A6A7B6BB3FBF2F101FB02F2991A3B6BE7
:1015A0005A1C3A634AB238333B4403F8342C3B6A42
:1015B0007A6BB2FBF3F37B637B6B002B03D03B6B4B
:1015C0000A2BE5D900E000BFFB69002B07D03B6B7D
:1015D0005A1C3A6338333B447F2203F8342C7A6A2E
:1015E0003B6B9A4214D92023FB757A6A3B6BD31A62
:1015F0007B62BB6A002B06D03023FB7503E0FB7DCA
:101600001846FFF709FF7B6A5A1E7A62002BF6D153
:101610003B6B013BFB622BE03A1DFB6A134493F9E1
:1016200000307F2B03D12D20FFF7F6FE1DE03A1D81
:10163000FB6A134493F90030092B0BDD3A1DFB6A5A
:10164000134493F90030DBB23733DBB21846FFF7AF
:10165000E3FE0AE03A1DFB6A134493F90030DBB263
:101660003033DBB21846FFF7D7FEFB6A013BFB6263
:10167000FB6A002BD0DA38E03B691A1D3A611B681F
:10168000BB6106E0BB695A1CBA611B781846FFF7BC
:10169000C3FEBB691B78002BF4D126E03B6C1B78A2
:1016A0002F2B2BD93B6C1B78392B27D87A6A134602
:1016B0009B0013445B001A463B6C1B781344303B81
:1016C0007B623B6C01333B643B6C1B78002B7FF4EB
:1016D000DFAE3B6C1B78002B06D110E03B6C1B7817
:1016E0001846FFF799FE00E000BF3B6C01333B64F6
:1016F0003B6C1B78002B7FF4B7AE00E000BF00BF4F
:101700003837BD46BDE8804004B0704748656C6C12
:101710006F0D0A00486172644661756C740A0D00B1
:0417200001000000C4
:0417240014000000AD
:020000042000DA
:0400000000000000FC
:040000050800035993
:00000001FF
