:020000040800F2
:1000000000000220BD030008470400084D0400085A
:1000100053040008590400085F04000800000000B1
:10002000000000000000000000000000650400085F
:100030006B04000800000000710400087704000849
:10004000830400088F0400089B040008A70400082C
:10005000B3040008BF040008810D0008AD0D0008BE
:10006000D90D0008050E0008310E0008CB04000869
:10007000D7040008E3040008EF040008FB040008AC
:1000800007050008130500081F0500082B050008D8
:1000900037050008430500084F0500085D0E0008FD
:1000A0005B05000867050008730500087F05000868
:1000B0008B05000897050008A3050008AF05000898
:1000C000BB050008C7050008D3050008DF050008C8
:1000D000EB050008F7050008030600080F060008F6
:1000E000F90E00081B060008270600083306000862
:1000F0003F0600084B060008570600086306000884
:100100006F0600087B0600088706000893060008B3
:100110009F060008AB060008B7060008C3060008E3
:10012000CF060008DB060008E7060008F306000813
:10013000FF0600080B070008170700082307000840
:100140002F0700083B07000847070008530700086F
:100150005F0700086B07000877070008830700089F
:100160008F0700089B070008A7070008B3070008CF
:10017000BF070008CB070008D7070008E3070008FF
:10018000EF070008FB070008000000000708000850
:10019000000000000000000013080008000000003C
:1001A00000000000000000001F0800082B080008E5
:1001B00037080008430800084F0800085B080008DB
:1001C00080B485B000AF786039600023FB600FE039
:1001D00000BF0C4B1B6803F08003002BF9D07B6839
:1001E0005A1C7A601A78074B5A60FB680133FB602F
:1001F000FA683B689A42EBDB3B6818461437BD4609
:1002000080BC70470044004080B483B000AF786089
:1002100000BF7B685A1E7A60002BFAD100BF00BF76
:100220000C37BD4680BC704780B582B002AF032357
:100230000193002300930023012220211A4800F09B
:10024000BDFE01224FF40051184800F065FB034643
:10025000002B06D0144B9B69134A43F4001393619F
:1002600005E0114B9B69104A43F02003936110484D
:1002700000F078FD13210F48FFF7A2FF0E48FFF7AB
:10028000C3FF094B9B69084A43F4001393610A4872
:10029000FFF7BAFF044B9B69034A43F020039361C5
:1002A0000548FFF7B1FFE5E7000002400008024003
:1002B000BD020008D418000840420F0080B582B08B
:1002C00000AF0346FB80FB88B3F5005F0CD1084804
:1002D000FFF79AFF06210748FFF772FF064B5B699D
:1002E000054A83F02003536100BF0837BD4680BD37
:1002F00090D00300E81800080000024080B483B0EA
:1003000000AF78603960074B00221A607A683B685A
:100310009A4202D0034B01221A6000BF0C37BD463F
:1003200080BC70470000002080B500AF204B1B6BE5
:100330001F4A43F0010313631E4B1B681D4A23F041
:10034000100313601B4B1B681A4A43F02003136011
:10035000184B1B6A174A43F480731362154B1B6AD0
:10036000144A43F400731362124B1B6A114A43F49C
:10037000806313620F4B1B6A0E4A23F400631362FF
:100380000B4B1B6C0A4A43F4003313640A4B8B2259
:100390009A60094B0822DA60074BDB68064A43F48F
:1003A0000053D360FFF740FF0023184680BD00BF15
:1003B00000380240000002400044004080B586B092
:1003C00000AF1A4A1A4BD31A7B60194B7B61194B49
:1003D0003B610023FB600AE03A69531C3B617B6987
:1003E000591C796112781A70FB680133FB60FA6856
:1003F0007B689A42F0D3104A104BD31A7B600F4BA4
:100400007B610023BB6007E07B695A1C7A61002294
:100410001A70BB680133BB60BA687B689A42F3D339
:10042000FFF782FF00BF1837BD4680BD04000020E3
:1004300004000020F0180008240000200400002020
:1004400080B400AFFEE780B400AFFEE780B400AF39
:10045000FEE780B400AFFEE780B400AFFEE780B4F3
:1004600000AFFEE780B400AFFEE780B400AFFEE768
:1004700080B400AFFEE780B400AF00BFBD4680BCD3
:10048000704780B400AF00BFBD4680BC704780B4E9
:1004900000AF00BFBD4680BC704780B400AF00BF56
:1004A000BD4680BC704780B400AF00BFBD4680BC75
:1004B000704780B400AF00BFBD4680BC704780B4B9
:1004C00000AF00BFBD4680BC704780B400AF00BF26
:1004D000BD4680BC704780B400AF00BFBD4680BC45
:1004E000704780B400AF00BFBD4680BC704780B489
:1004F00000AF00BFBD4680BC704780B400AF00BFF6
:10050000BD4680BC704780B400AF00BFBD4680BC14
:10051000704780B400AF00BFBD4680BC704780B458
:1005200000AF00BFBD4680BC704780B400AF00BFC5
:10053000BD4680BC704780B400AF00BFBD4680BCE4
:10054000704780B400AF00BFBD4680BC704780B428
:1005500000AF00BFBD4680BC704780B400AF00BF95
:10056000BD4680BC704780B400AF00BFBD4680BCB4
:10057000704780B400AF00BFBD4680BC704780B4F8
:1005800000AF00BFBD4680BC704780B400AF00BF65
:10059000BD4680BC704780B400AF00BFBD4680BC84
:1005A000704780B400AF00BFBD4680BC704780B4C8
:1005B00000AF00BFBD4680BC704780B400AF00BF35
:1005C000BD4680BC704780B400AF00BFBD4680BC54
:1005D000704780B400AF00BFBD4680BC704780B498
:1005E00000AF00BFBD4680BC704780B400AF00BF05
:1005F000BD4680BC704780B400AF00BFBD4680BC24
:10060000704780B400AF00BFBD4680BC704780B467
:1006100000AF00BFBD4680BC704780B400AF00BFD4
:10062000BD4680BC704780B400AF00BFBD4680BCF3
:10063000704780B400AF00BFBD4680BC704780B437
:1006400000AF00BFBD4680BC704780B400AF00BFA4
:10065000BD4680BC704780B400AF00BFBD4680BCC3
:10066000704780B400AF00BFBD4680BC704780B407
:1006700000AF00BFBD4680BC704780B400AF00BF74
:10068000BD4680BC704780B400AF00BFBD4680BC93
:10069000704780B400AF00BFBD4680BC704780B4D7
:1006A00000AF00BFBD4680BC704780B400AF00BF44
:1006B000BD4680BC704780B400AF00BFBD4680BC63
:1006C000704780B400AF00BFBD4680BC704780B4A7
:1006D00000AF00BFBD4680BC704780B400AF00BF14
:1006E000BD4680BC704780B400AF00BFBD4680BC33
:1006F000704780B400AF00BFBD4680BC704780B477
:1007000000AF00BFBD4680BC704780B400AF00BFE3
:10071000BD4680BC704780B400AF00BFBD4680BC02
:10072000704780B400AF00BFBD4680BC704780B446
:1007300000AF00BFBD4680BC704780B400AF00BFB3
:10074000BD4680BC704780B400AF00BFBD4680BCD2
:10075000704780B400AF00BFBD4680BC704780B416
:1007600000AF00BFBD4680BC704780B400AF00BF83
:10077000BD4680BC704780B400AF00BFBD4680BCA2
:10078000704780B400AF00BFBD4680BC704780B4E6
:1007900000AF00BFBD4680BC704780B400AF00BF53
:1007A000BD4680BC704780B400AF00BFBD4680BC72
:1007B000704780B400AF00BFBD4680BC704780B4B6
:1007C00000AF00BFBD4680BC704780B400AF00BF23
:1007D000BD4680BC704780B400AF00BFBD4680BC42
:1007E000704780B400AF00BFBD4680BC704780B486
:1007F00000AF00BFBD4680BC704780B400AF00BFF3
:10080000BD4680BC704780B400AF00BFBD4680BC11
:10081000704780B400AF00BFBD4680BC704780B455
:1008200000AF00BFBD4680BC704780B400AF00BFC2
:10083000BD4680BC704780B400AF00BFBD4680BCE1
:10084000704780B400AF00BFBD4680BC704780B425
:1008500000AF00BFBD4680BC704780B400AF00BF92
:10086000BD4680BC704700BF80B400AF274B1B68FB
:10087000264A43F00103136000BF244B1B6803F0BA
:100880000203002BF9D0214B1B6C204A43F080530C
:1008900013641F4B1B681E4A43F4404313601D4BF7
:1008A00040F205721A60194B184A9B689360174B07
:1008B0009B68164A43F4A0539360144B9B68134AF9
:1008C00043F400439360114B42F608525A600F4BB9
:1008D0001B680E4A43F08073136000BF0B4B1B680C
:1008E00003F00073002BF9D0084B9B68074A43F0D4
:1008F0000203936000BF054B9B6803F00C03082BB9
:10090000F9D100BF00BFBD4680BC7047003802402F
:1009100000700040003C024090B587B002AF7860A4
:100920000B467B8013467B707B88002B05D07A8832
:100930007B88013B1340002B21D000237B7319E0FF
:100940007A887B7B42FA03F303F00103002B0ED07D
:100950007B7B012202FA03F39BB27A78194678680E
:10096000FFF7DAFF0346002B01D001239CE17B7BDC
:1009700001337B737B7B0F2BE2D9002394E1A14BE6
:100980001A687B881340002B05D19E4B5A687B88E0
:100990001340002B01D0012386E17B88B3F5004F83
:1009A00000F09580B3F5004F00F39480B3F5804FCD
:1009B00000F08D80B3F5804F00F38C80B3F5005FBD
:1009C00000F08580B3F5005F00F38480B3F5805FAD
:1009D0007DD0B3F5805F7DDCB3F5006F77D0B3F5E4
:1009E000006F77DCB3F5806F71D0B3F5806F71DC89
:1009F000B3F5007F68D0B3F5007F6BDCB3F5807F83
:100A000062D0B3F5807F65DC802B5DD0802B61DC0C
:100A1000202B47DC002B5DDD013B1F2B5AD801A2A8
:100A200052F823F0AB0A0008B10A0008D50A000802
:100A3000B70A0008D50A0008D50A0008D50A000838
:100A4000BD0A0008D50A0008D50A0008D50A000822
:100A5000D50A0008D50A0008D50A0008D50A0008FA
:100A6000C30A0008D50A0008D50A0008D50A0008FC
:100A7000D50A0008D50A0008D50A0008D50A0008DA
:100A8000D50A0008D50A0008D50A0008D50A0008CA
:100A9000D50A0008D50A0008D50A0008D50A0008BA
:100AA000C90A0008402B0FD014E00623BB7313E0E3
:100AB0000723BB7310E00823BB730DE00923BB734E
:100AC0000AE00A23BB7307E01723BB7304E0282363
:100AD000BB7301E00123E7E07B78012B02D1012306
:100AE000FB7307E07B78002B02D10223FB7301E04C
:100AF0000023FB73798800230193FB7B0093002381
:100B00000022786800F05AFA7B88184600F0EBFC67
:100B100003463B73786800F0FDFC0346FB723A4BDA
:100B20005B6C394A43F480435364384A3B7B9B08EF
:100B3000DBB2023352F823303A7B02F00302920018
:100B40000F2101FA02F2D243144630493A7B92084F
:100B5000D2B2104603EA0402831C41F823202B4A38
:100B60003B7B9B08DBB2023352F82330F97A3A7BA5
:100B700002F00302920001FA02F2144623493A7B82
:100B80009208D2B2104643EA0402831C41F82320A3
:100B90001C4B1B687A88D24311461A4A0B401360DB
:100BA000184B5B687A88D2431146164A0B40536053
:100BB000144B1A687B88134913430B60114BDB6895
:100BC0007A88D24311460F4A0B40D3600D4B9B6885
:100BD0007A88D24311460B4A0B4093607B78012BF5
:100BE00006D1084BDA687B8806491343CB601BE0CB
:100BF0007B78002B0CD1034B9A687B880149134307
:100C00008B6011E0003C0140003802400038014098
:100C1000274BDA687B8826491343CB60244B9A68BC
:100C20007B88234913438B600023BB7200237B72B4
:100C30000F233B721F4BDB681E4A43F4A063D36053
:100C40001C4BDB68DB431B0ADBB203F00703BB7200
:100C5000BB7AC3F104037B723A7ABB7A42FA03F39C
:100C60003B727B7A0A2202FA03F3BB723A7B3B7A2D
:100C70001340DAB2BB7A1343BB72BB7A1B01BB725F
:100C8000BB7B03F01F030C49BA7B5209D2B210465A
:100C9000012202FA03F341F82030074ABB7B1344D8
:100CA000BA7A83F80023002318461437BD4690BD56
:100CB000003C014000ED00E000E100E080B483B0C2
:100CC00000AF0346FB80134B1B68FA88D2431146E2
:100CD000104A0B4013600F4B5B68FA88D2431146F1
:100CE0000C4A0B4053600B4BDB68FA88D243114629
:100CF000084A0B40D360074B9B68FA88D2431146E1
:100D0000044A0B409360002318460C37BD4680BC54
:100D1000704700BF003C014080B400AF104B1B681F
:100D20000F4A1B0C1B0413600D4B5B680C4A1B0C19
:100D30001B0453600A4BDB68094A1B0C1B04D3607D
:100D4000074B9B68064A1B0C1B049360044B5B69B2
:100D5000034A1B0C1B04536100BFBD4680BC704797
:100D6000003C014080B483B000AF78607B68034AE8
:100D7000136000BF0C37BD4680BC704704000020E4
:100D800080B500AF074B5B6903F00103002B06D071
:100D9000044B01225A61044B1B680120984700BF95
:100DA00080BD00BF003C01400400002080B500AFC2
:100DB000074B5B6903F00203002B06D0044B0222B1
:100DC0005A61044B1B680220984700BF80BD00BFDA
:100DD000003C01400400002080B500AF074B5B6978
:100DE00003F00403002B06D0044B04225A61044B89
:100DF0001B680420984700BF80BD00BF003C014035
:100E00000400002080B500AF074B5B6903F00803C6
:100E1000002B06D0044B08225A61044B1B680820A3
:100E2000984700BF80BD00BF003C01400400002087
:100E300080B500AF074B5B6903F01003002B06D0B1
:100E4000044B10225A61044B1B681020984700BFC6
:100E500080BD00BF003C01400400002080B500AF11
:100E6000234B5B6903F02003002B06D0204B20228C
:100E70005A61204B1B68202098471D4B5B6903F08B
:100E80004003002B06D01A4B40225A61194B1B68B5
:100E900040209847164B5B6903F08003002B06D077
:100EA000134B80225A61134B1B6880209847104BCC
:100EB0005B6903F48073002B08D00D4B4FF48072F4
:100EC0005A610C4B1B684FF480709847084B5B6964
:100ED00003F40073002B08D0054B4FF400725A61E5
:100EE000044B1B684FF40070984700BF80BD00BFE3
:100EF000003C01400400002080B500AF2D4B5B6931
:100F000003F48063002B08D02A4B4FF480625A61AF
:100F1000294B1B684FF480609847264B5B6903F4AC
:100F20000063002B08D0234B4FF400625A61224B20
:100F30001B684FF4006098471E4B5B6903F48053B5
:100F4000002B08D01B4B4FF480525A611A4B1B6880
:100F50004FF480509847174B5B6903F40053002B04
:100F600008D0144B4FF400525A61134B1B684FF4D6
:100F7000005098470F4B5B6903F48043002B08D067
:100F80000C4B4FF480425A610B4B1B684FF480406E
:100F90009847084B5B6903F40043002B08D0054BCE
:100FA0004FF400425A61044B1B684FF400409847CD
:100FB00000BF80BD003C01400400002080B584B02B
:100FC00002AF7860084611461A4603467B800B46FE
:100FD0007B7013463B70786800F067F80346002B7F
:100FE0000BD038787A7879883B7D01933B7C0093ED
:100FF0000346786800F0B4F800E000BF0837BD464B
:1010000080BD80B586B002AF7860084611461A46AA
:1010100003467B800B467B7013463B70786800F07C
:1010200044F80346002B3CD00023FB602AE07A887A
:10103000FB6842FA03F303F00103002B1ED0FB68A8
:10104000DA087B68083253F82230FA6802F00702A7
:1010500092000F2101FA02F2D2431340397FFA685D
:1010600002F00702920001FA02F21146FA68D20871
:1010700019437B68083243F8221000E000BFFB6888
:101080000133FB60FB680F2BD1D97A7879883B7EDE
:1010900001933B78009313460222786800F060F8D1
:1010A00000E000BF1037BD4680BD80B582B000AF04
:1010B00078607B68224A934203D1214800F03AFAD3
:1010C00039E07B681F4A934203D11E4800F032FA90
:1010D00031E07B681C4A934203D11B4800F02AFA96
:1010E00029E07B68194A934203D1184800F022FA9C
:1010F00021E07B68164A934203D1154800F01AFAA2
:1011000019E07B68134A934203D1124800F012FAA7
:1011100011E07B68104A934203D10F4800F00AFAAD
:1011200009E07B680D4A934203D10C4800F002FAB3
:1011300001E0002300E0012318460837BD4680BDCA
:10114000000002400004024000080240000C02407F
:10115000001002400014024000180240001C02402F
:1011600080B584B000AF7860084611461A46034641
:101170007B800B467B7013463B70786800F0CAF9A1
:101180000346BB730023FB7367E07A88FB7B42FA5C
:1011900003F303F00103002B5BD0BB7B334A32F82F
:1011A00013301AB2FB7B012101FA03F31BB2134384
:1011B0001AB2BB7B91B22D4A22F813107B68DB6810
:1011C000FA7B5200032101FA02F2D2431340397E26
:1011D000FA7B520001FA02F21A437B68DA607B68FC
:1011E0001A68FB7B5B00032101FA03F3DB43134026
:1011F0007978FA7B520001FA02F21A437B681A608E
:101200007B78012B02D07B78022B23D17B685B6833
:10121000FA7B012101FA02F292B2D24313403978EB
:10122000FA7B01FA02F292B21A437B685A607B6839
:101230009A68FB7B5B00032101FA03F3DB43134055
:10124000397FFA7B520001FA02F21A437B689A60F6
:1012500000E000BFFB7B0133FB73FB7B0F2B94D9BA
:1012600000BF00BF1037BD4680BD00BF0800002092
:1012700080B584B000AF78600B467B80786800F062
:1012800049F90346BB730023FB7327E07A88FB7B95
:1012900042FA03F303F00103002B1CD07B681B68A8
:1012A000FA7B5200032101FA02F21A437B681A60AA
:1012B000BB7B0E4A32F813301AB2FB7B012101FAD4
:1012C00003F31BB2DB431BB213401AB2BB7B91B2D8
:1012D000064A22F81310FB7B0133FB73FB7B0F2BB9
:1012E000D4D900BF00BF1037BD4680BD0800002024
:1012F00080B485B000AF78600B467B800023FB7321
:1013000015E07A88FB7B42FA03F303F00103002B1C
:101310000AD07B681B68FA7B5200032101FA02F2B3
:10132000D2431A407B681A60FB7B0133FB73FB7B63
:101330000F2BE6D900BF00BF1437BD4680BC7047F5
:1013400080B485B000AF78600B467B800023FB73D0
:101350001BE07A88FB7B42FA03F303F00103002BC6
:1013600010D07B681B68FA7B5200032101FA02F25D
:10137000D2431340FA7B5200012101FA02F21A43D0
:101380007B681A60FB7B0133FB73FB7B0F2BE0D97F
:1013900000BF00BF1437BD4680BC704780B485B025
:1013A00000AF78600B467B800023FB7314E07A88E3
:1013B000FB7B42FA03F303F00103002B09D07B68A7
:1013C0001B68FA7B5200032101FA02F21A437B6880
:1013D0001A60FB7B0133FB73FB7B0F2BE7D900BF4C
:1013E00000BF1437BD4680BC704780B485B000AFE5
:1013F00078600B467B800023FB731DE07A88FB7BC3
:1014000042FA03F303F00103002B11D07B681B6841
:10141000FA7B5200032101FA02F2D2431340FA7B15
:101420005200022101FA02F21A437B681A6000E0BE
:1014300000BFFB7B0133FB73FB7B0F2BDED900BFAF
:1014400000BF1437BD4680BC704780B485B000AF84
:1014500078600B467B8013467B700023FB731DE096
:101460007A88FB7B42FA03F303F00103002B11D0CF
:101470007B68DB68FA7B5200032101FA02F2D24357
:1014800013407978FA7B520001FA02F21A437B6822
:10149000DA6000E000BFFB7B0133FB73FB7B0F2BAB
:1014A000DED900BF00BF1437BD4680BC704780B492
:1014B00085B000AF78600B467B807B8843F4803337
:1014C000FB607B68FA68DA617A887B68DA617B683E
:1014D000FA68DA617B68DB697B68DB6900BF143717
:1014E000BD4680BC704780B485B000AF0346FB802A
:1014F0000023FB8105E0FB890133FB81FB885B084E
:10150000FB80FB88012BF6D8FB8918461437BD46B3
:1015100080BC704780B483B000AF78607B6803F113
:101520003F4303F57E039B0A9BB218460C37BD462A
:1015300080BC704780B582B000AF78607868FFF7F4
:10154000E9FF03461A46012303FA02F2044B1B6B20
:101550001146034A0B43136300BF0837BD4680BDE5
:101560000038024080B582B000AF78607868FFF73D
:10157000D1FF03461A4601239340DA43044B1B6B09
:101580001146034A0B40136300BF0837BD4680BDB8
:101590000038024080B582B000AF78607868FFF70D
:1015A000B9FF03461A46034B33F812301846083782
:1015B000BD4680BD0800002080B582B000AF7860D5
:1015C0007868FFF7A7FF03461A46044B33F812303A
:1015D000DB439BB218460837BD4680BD080000209B
:1015E00080B582B000AF0346FB71FB790A2B03D1B3
:1015F000084B1B680D209847064B1B68002B04D036
:10160000044B1B68FA791046984700BF0837BD465F
:1016100080BD00BF200000200FB480B58EB000AFA9
:101620000023BB6200237B6207F144033B6143E17B
:101630003B6C1B78252B40F035810023BB623B6C53
:1016400001331B78302B04D10123BB623B6C013387
:101650003B6400237B6218E13B6C1B78252B51D047
:10166000252BC0F2FF80782B00F3FC80582BC0F2B2
:10167000F980583B202B00F2F58001A252F823F0AC
:101680002317000865180008651800086518000889
:101690006518000865180008651800086518000836
:1016A000651800086518000865180008111700087B
:1016B0002317000865180008651800086518000859
:1016C0006518000865180008651800086518000806
:1016D00065180008651800086518000865180008F6
:1016E000651800086518000865180008411800080A
:1016F00065180008651800086518000865180008D6
:10170000231700083B6C1B781846FFF769FFD0E0F1
:101710003B691A1D3A611B68DBB21846FFF760FF90
:10172000C7E00023FB613B691A1D3A611B687B63BC
:101730003B6C1B78642B0AD10A233B627B6B002B2A
:1017400007DA7B6B5B427B630123FB6101E01023C3
:101750003B6200233B6316E03A6A7B6BB3FBF2F11A
:1017600001FB02F2991A3B6B5A1C3A634AB23833B6
:101770003B4403F8342C3B6A7A6BB2FBF3F37B6394
:101780007B6B002B03D03B6B0A2BE5D900E000BF3D
:10179000FB69002B07D03B6B5A1C3A6338333B4440
:1017A0007F2203F8342C7A6A3B6B9A4214D92023A7
:1017B000FB757A6A3B6BD31A7B62BB6A002B06D03F
:1017C0003023FB7503E0FB7D1846FFF709FF7B6ABA
:1017D0005A1E7A62002BF6D13B6B013BFB622BE079
:1017E0003A1DFB6A134493F900307F2B03D12D205F
:1017F000FFF7F6FE1DE03A1DFB6A134493F9003033
:10180000092B0BDD3A1DFB6A134493F90030DBB260
:101810003733DBB21846FFF7E3FE0AE03A1DFB6AF6
:10182000134493F90030DBB23033DBB21846FFF7D4
:10183000D7FEFB6A013BFB62FB6A002BD0DA38E083
:101840003B691A1D3A611B68BB6106E0BB695A1C03
:10185000BA611B781846FFF7C3FEBB691B78002BE3
:10186000F4D126E03B6C1B782F2B2BD93B6C1B78DB
:10187000392B27D87A6A13469B0013445B001A461B
:101880003B6C1B781344303B7B623B6C01333B6405
:101890003B6C1B78002B7FF4DFAE3B6C1B78002B7E
:1018A00006D110E03B6C1B781846FFF799FE00E06C
:1018B00000BF3B6C01333B643B6C1B78002B7FF417
:1018C000B7AE00E000BF00BF3837BD46BDE880407E
:1018D00004B0704748656C6C6F2054686572652071
:1018E000282D2E2D290A0D00457869740A0D000057
:020000042000DA
:0400000000000000FC
:04000005080003BD2F
:00000001FF
