:020000040800F2
:10000000FCFF0020BD040008E7050008ED0500081E
:100010000106000815060008290600080000000077
:100020000000000000000000000000003D06000885
:100030004306000800000000710F0008350F00089B
:100040004906000855060008610600086D0600080C
:100050007906000885060008910600089D0600083C
:10006000A9060008B5060008C1060008CD0600086C
:10007000D9060008E5060008F1060008FD0600089C
:100080000907000815070008210700082D070008C8
:100090003907000845070008510700085D070008F8
:1000A0006907000875070008810700088D07000828
:1000B00099070008A5070008B1070008BD07000858
:1000C000C9070008D5070008E1070008ED07000888
:1000D000F907000805080008110800081D080008B5
:1000E0002908000835080008410800084D080008E4
:1000F0005908000865080008710800087D08000814
:100100008908000895080008A1080008AD08000843
:10011000B9080008C5080008D1080008DD08000873
:10012000E9080008F5080008010900080D090008A1
:100130001909000825090008310900083D090008CF
:100140004909000855090008610900086D090008FF
:100150007909000885090008910900089D0900082F
:10016000A9090008B5090008C1090008CD0900085F
:10017000D9090008E5090008F1090008FD0900088F
:10018000090A0008150A000800000000210A0008FA
:1001900000000000000000002D0A00080000000020
:1001A0000000000000000000390A0008450A0008AD
:1001B000510A00085D0A0008690A0008750A00086B
:1001C00080B483B000AF00237B6002E07B68013322
:1001D0007B607B68044A9342F8D900BF00BF0C37AC
:1001E000BD4680BC704700BF9F86010080B582B0CD
:1001F00002AF0323019300230093002301224FF455
:100200000051304800F020FF0323019300230093A6
:100210000023012201212C4800F016FF0323019343
:1002200000230093002301220221274800F00CFF45
:100230000323019300230093002301220421224879
:1002400000F002FF03230193002300930023012207
:1002500008211D4800F0F8FE0323019300230093BA
:10026000002301221021184800F0EEFE0323019321
:1002700000230093002301222021134800F0E4FE14
:1002800003230193002300930023012240210E4801
:1002900000F0DAFE01234FF480720C490C4800F0A4
:1002A00061FC01234FF480720A490B4800F05AFCAC
:1002B00001234FF480720949094800F053FC00F013
:1002C00039FCFEE700080240000002406C160008FE
:1002D000E502000878160008EB02000888160008FE
:1002E0000903000880B400AFFEE780B500AF054BFE
:1002F0005B69044A83F00103536147F2552000F023
:1003000001FDF4E70000024080B500AF044B5B69DB
:10031000034A83F400535361622000F0F3FCF5E7D5
:100320000008024080B500AF054B5B69044A83F0CA
:10033000020353614FF47A7000F0E4FCF4E700BF6D
:100340000000024080B500AF054B5B69044A83F0B2
:100350000403536141F2883000F0D4FCF4E700BF9D
:100360000000024080B500AF054B5B69044A83F092
:10037000080353614FF4FA6000F0C4FCF4E700BFD7
:100380000000024080B500AF054B5B69044A83F072
:100390001003536140F6B83000F0B4FCF4E700BF3E
:1003A0000000024080B500AF054B5B69044A83F052
:1003B000200353614FF4FA7000F0A4FCF4E700BF8F
:1003C0000000024080B500AF054B5B69044A83F032
:1003D000400353614FF4E17000F094FCF4E700BF78
:1003E0000000024080B582B000AF164A164BD31A07
:1003F0009B103B6000237B6007E0134A7B6852F848
:10040000233098477B6801337B607A683B689A4267
:10041000F3D30E4A0E4BD31A9B103B6000237B6034
:1004200007E00B4A7B6852F8233098477B6801331A
:100430007B607A683B689A42F3D300BF00BF0837FD
:10044000BD4680BD0000000000000000000000006C
:100450000000000080B485B000AF786039600023F0
:10046000FB600FE000BF0C4B1B6803F08003002B08
:10047000F9D07B685A1C7A601A78074B5A60FB687F
:100480000133FB60FA683B689A42EBDB3B68184635
:100490001437BD4680BC70470044004080B483B030
:1004A00000AF786000BF7B685A1E7A60002BFAD1DB
:1004B00000BF00BF0C37BD4680BC704780B586B01A
:1004C00000AF3D4B83F308883C4A3D4BD31A7B6019
:1004D0003B4B7B613B4B3B610023FB600AE03A698D
:1004E000531C3B617B69591C796112781A70FB6857
:1004F0000133FB60FA687B689A42F0D3324A334B8F
:10050000D31A7B60314B7B610023BB6007E07B69C2
:100510005A1C7A6100221A70BB680133BB60BA684A
:100520007B689A42F3D3FFF75DFF294B4FF00062DF
:100530009A60284B1B6B274A43F001031363264B39
:100540001B68254A23F010031360234B1B68224AC3
:1005500043F020031360204B1B6A1F4A43F480734F
:1005600013621D4B1B6A1C4A43F4007313621A4B3F
:100570001B6A194A43F480631362174B1B6A164ABD
:1005800023F400631362134B1B6C124A43F40033D1
:100590001364124B8B229A60104B0822DA600F4BC7
:1005A000DB680E4A43F40053D360FFF71FFE00BF21
:1005B0001837BD4680BD00BFFCEB002008000020BE
:1005C00004000020CC160008F40000200C000020DD
:1005D00000ED00E00038024000000240004400400E
:1005E00080B400AFFEE780B400AFFEE780B500AF97
:1005F0000B210248FFF72EFFFEE700BF9816000808
:1006000080B500AF0B210248FFF724FFFEE700BFD3
:10061000A416000880B500AF0A210248FFF71AFFB0
:10062000FEE700BFB016000880B500AF0C210248FD
:10063000FFF710FFFEE700BFBC16000880B400AF54
:10064000FEE780B400AFFEE780B400AF00BFBD4658
:1006500080BC704780B400AF00BFBD4680BC70470F
:1006600080B400AF00BFBD4680BC704780B400AF0F
:1006700000BFBD4680BC704780B400AF00BFBD4620
:1006800080BC704780B400AF00BFBD4680BC7047DF
:1006900080B400AF00BFBD4680BC704780B400AFDF
:1006A00000BFBD4680BC704780B400AF00BFBD46F0
:1006B00080BC704780B400AF00BFBD4680BC7047AF
:1006C00080B400AF00BFBD4680BC704780B400AFAF
:1006D00000BFBD4680BC704780B400AF00BFBD46C0
:1006E00080BC704780B400AF00BFBD4680BC70477F
:1006F00080B400AF00BFBD4680BC704780B400AF7F
:1007000000BFBD4680BC704780B400AF00BFBD468F
:1007100080BC704780B400AF00BFBD4680BC70474E
:1007200080B400AF00BFBD4680BC704780B400AF4E
:1007300000BFBD4680BC704780B400AF00BFBD465F
:1007400080BC704780B400AF00BFBD4680BC70471E
:1007500080B400AF00BFBD4680BC704780B400AF1E
:1007600000BFBD4680BC704780B400AF00BFBD462F
:1007700080BC704780B400AF00BFBD4680BC7047EE
:1007800080B400AF00BFBD4680BC704780B400AFEE
:1007900000BFBD4680BC704780B400AF00BFBD46FF
:1007A00080BC704780B400AF00BFBD4680BC7047BE
:1007B00080B400AF00BFBD4680BC704780B400AFBE
:1007C00000BFBD4680BC704780B400AF00BFBD46CF
:1007D00080BC704780B400AF00BFBD4680BC70478E
:1007E00080B400AF00BFBD4680BC704780B400AF8E
:1007F00000BFBD4680BC704780B400AF00BFBD469F
:1008000080BC704780B400AF00BFBD4680BC70475D
:1008100080B400AF00BFBD4680BC704780B400AF5D
:1008200000BFBD4680BC704780B400AF00BFBD466E
:1008300080BC704780B400AF00BFBD4680BC70472D
:1008400080B400AF00BFBD4680BC704780B400AF2D
:1008500000BFBD4680BC704780B400AF00BFBD463E
:1008600080BC704780B400AF00BFBD4680BC7047FD
:1008700080B400AF00BFBD4680BC704780B400AFFD
:1008800000BFBD4680BC704780B400AF00BFBD460E
:1008900080BC704780B400AF00BFBD4680BC7047CD
:1008A00080B400AF00BFBD4680BC704780B400AFCD
:1008B00000BFBD4680BC704780B400AF00BFBD46DE
:1008C00080BC704780B400AF00BFBD4680BC70479D
:1008D00080B400AF00BFBD4680BC704780B400AF9D
:1008E00000BFBD4680BC704780B400AF00BFBD46AE
:1008F00080BC704780B400AF00BFBD4680BC70476D
:1009000080B400AF00BFBD4680BC704780B400AF6C
:1009100000BFBD4680BC704780B400AF00BFBD467D
:1009200080BC704780B400AF00BFBD4680BC70473C
:1009300080B400AF00BFBD4680BC704780B400AF3C
:1009400000BFBD4680BC704780B400AF00BFBD464D
:1009500080BC704780B400AF00BFBD4680BC70470C
:1009600080B400AF00BFBD4680BC704780B400AF0C
:1009700000BFBD4680BC704780B400AF00BFBD461D
:1009800080BC704780B400AF00BFBD4680BC7047DC
:1009900080B400AF00BFBD4680BC704780B400AFDC
:1009A00000BFBD4680BC704780B400AF00BFBD46ED
:1009B00080BC704780B400AF00BFBD4680BC7047AC
:1009C00080B400AF00BFBD4680BC704780B400AFAC
:1009D00000BFBD4680BC704780B400AF00BFBD46BD
:1009E00080BC704780B400AF00BFBD4680BC70477C
:1009F00080B400AF00BFBD4680BC704780B400AF7C
:100A000000BFBD4680BC704780B400AF00BFBD468C
:100A100080BC704780B400AF00BFBD4680BC70474B
:100A200080B400AF00BFBD4680BC704780B400AF4B
:100A300000BFBD4680BC704780B400AF00BFBD465C
:100A400080BC704780B400AF00BFBD4680BC70471B
:100A500080B400AF00BFBD4680BC704780B400AF1B
:100A600000BFBD4680BC704780B400AF00BFBD462C
:100A700080BC704780B400AF00BFBD4680BC7047EB
:100A800080B483B000AF78603960074B00221A60F1
:100A90007A683B689A4202D0034B01221A6000BF79
:100AA0000C37BD4680BC70470000002080B483B086
:100AB00000AF0C4B7B607B681B6843F480327B6823
:100AC0001A607B681B6843F400327B681A607B689D
:100AD0001B6843F480227B681A6000BF0C37BD4658
:100AE00080BC704724ED00E080B485B000AF0346C1
:100AF000FB710E4BFB600023FB720DE0FA7A0C4990
:100B000013469B0013449B000B441B68FA68D31ADE
:100B1000FB60FB7A0133FB72FA7AFB799A42EDD3E0
:100B2000FB6818461437BD4680BC7047FCFF0020A8
:100B30000C000020094B1B781846FFF7D5FF034631
:100B4000184600F0ABF84FF47A7000F0ACF800F003
:100B50001FF9034B5B6A984700BF00BFD800002015
:100B60000C00002090B587B000AFF860B9607A60E3
:100B70003B60484B1B78002B01D1FFF797FF454B9B
:100B80001B780A2B01D9002380E0424B1B78414A95
:100B9000127814461846FFF7A7FF02463E4923463F
:100BA0009B0023449B000B4404331A60394B1B7891
:100BB0001946394A0B469B000B449B0013440C33E7
:100BC00000221A70334B1B781846FA6832490346E4
:100BD0009B0003449B000B4410331A602D4B1B7881
:100BE00019462D4A0B469B000B449B0013447A6820
:100BF0001A60284B1B781946274A0B469B000B446A
:100C00009B00134404331B687B617B69043B7B615D
:100C10007B694FF080721A607B69043B7B611D4BDE
:100C20001B7819461C4A0B469B000B449B0013443F
:100C300010331B681A467B691A607B69043B7B6131
:100C40007B696FF002021A6000233B6108E07B6958
:100C5000043B7B617B6900221A603B6901333B6185
:100C60003B690C2BF3DD0B4B1B7818467A690A495C
:100C700003469B0003449B000B4404331A60054B5E
:100C80001B780133DAB2034B1A70012318461C3764
:100C9000BD4690BDD80000200C000020034683F321
:100CA0000888704700BF80B487B000AF7860134BEE
:100CB0007B61134B3B6143F67F63FB607B690022E2
:100CC0001A607B691A68FB681A437B691A603B6982
:100CD0001B6843F002023B691A603B691B6843F0E2
:100CE00004023B691A603B691B6843F001023B69DF
:100CF0001A6000BF1C37BD4680BC704714E000E09E
:100D000010E000E080B582B000AF786072B600BF3E
:100D1000134B1B78002B1CD0124B1A68104B1B78FE
:100D200018467B681A44104903469B0003449B0005
:100D30000B4408331A600A4B1B7819460A4A0B46C3
:100D40009B000B449B0013440C33FF221A7000F0ED
:100D50000DF862B600BF00BF0837BD4680BD00BFBA
:100D600004000020D40000200C00002080B483B0D8
:100D700000AF064B7B607B681B6843F080527B684A
:100D80001A6000BF0C37BD4680BC704704ED00E020
:100D900000B500F00AF880F309885DF804EB4FF025
:100DA000020080F31488704700BF80B400AF074B87
:100DB0001B781946064A0B469B000B449B001344C4
:100DC00004331B681846BD4680BC704704000020F1
:100DD0000C00002080B483B000AF7860084B1B7813
:100DE0001946084A0B469B000B449B0013440433EE
:100DF0007A681A6000BF0C37BD4680BC704700BFE0
:100E0000040000200C00002080B483B000AFFF235A
:100E10007B6000233B6027E01D4B1B780133DAB277
:100E20001B4B1A701A4B1B781A4A1278B3FBF2F15B
:100E300001FB02F29B1ADAB2154B1A70144B1B78A5
:100E40001946154A0B469B000B449B0013440C3378
:100E50001B787B607B68002B03D10D4B1B78002B2C
:100E600009D13B6801333B600A4B1B781A463B684B
:100E70009342D1DB00E000BF7B68002B02D0044B23
:100E800000221A7000BF0C37BD4680BC704700BFFF
:100E900004000020D80000200C00002080B400AF27
:100EA000044B1B680133034A136000BFBD4680BC7E
:100EB000704700BFD400002080B483B000AF01238E
:100EC0007B6024E018497A6813469B0013449B001A
:100ED0000B440C331B78002B16D013497A68134649
:100EE0009B0013449B000B4408331A680F4B1B688C
:100EF0009A4209D10C497A6813469B0013449B001F
:100F00000B440C3300221A707B6801337B60084B62
:100F10001B781A467B689342D4DB00BF00BF0C37B6
:100F2000BD4680BC704700BF0C000020D4000020EC
:100F3000D800002080B582B000AF0B4B7B60FFF77C
:100F4000ADFFFFF7B9FF7B681B6843F080527B68F9
:100F50001A60064B5B69054A83F00203536100BFC8
:100F60000837BD4680BD00BF04ED00E00000024030
:100F7000EFF3098020E9F00F00B5FFF72BFFFFF733
:100F800043FFFFF712FFB0E8F00F80F309885DF828
:100F900004EB704700BF00BF80B400AF274B1B6855
:100FA000264A43F00103136000BF244B1B6803F083
:100FB0000203002BF9D0214B1B6C204A43F08053D5
:100FC00013641F4B1B681E4A43F4404313601D4BC0
:100FD00040F205721A60194B184A9B689360174BD0
:100FE0009B68164A43F4A0539360144B9B68134AC2
:100FF00043F400439360114B42F608525A600F4B82
:101000001B680E4A43F08073136000BF0B4B1B68D4
:1010100003F00073002BF9D0084B9B68074A43F09C
:101020000203936000BF054B9B6803F00C03082B81
:10103000F9D100BF00BFBD4680BC704700380240F8
:1010400000700040003C024080B584B002AF786080
:10105000084611461A4603467B800B467B701346B2
:101060003B70786800F067F80346002B0BD03878A7
:101070007A7879883B7D01933B7C009303467868BE
:1010800000F0B4F800E000BF0837BD4680BD80B571
:1010900086B002AF7860084611461A4603467B8048
:1010A0000B467B7013463B70786800F044F80346AB
:1010B000002B3CD00023FB602AE07A88FB6842FAD0
:1010C00003F303F00103002B1ED0FB68DA087B68F2
:1010D000083253F82230FA6802F0070292000F211A
:1010E00001FA02F2D2431340397FFA6802F0070294
:1010F000920001FA02F21146FA68D20819437B689D
:10110000083243F8221000E000BFFB680133FB60A7
:10111000FB680F2BD1D97A7879883B7E01933B7895
:10112000009313460222786800F060F800E000BFE8
:101130001037BD4680BD80B582B000AF78607B6857
:10114000224A934203D1214800F03AFA39E07B6801
:101150001F4A934203D11E4800F032FA31E07B6807
:101160001C4A934203D11B4800F02AFA29E07B680D
:10117000194A934203D1184800F022FA21E07B6813
:10118000164A934203D1154800F01AFA19E07B6819
:10119000134A934203D1124800F012FA11E07B681F
:1011A000104A934203D10F4800F00AFA09E07B6825
:1011B0000D4A934203D10C4800F002FA01E00023EB
:1011C00000E0012318460837BD4680BD00000240FC
:1011D0000004024000080240000C024000100240DF
:1011E0000014024000180240001C024080B584B088
:1011F00000AF7860084611461A4603467B800B46CE
:101200007B7013463B70786800F0CAF90346BB73E5
:101210000023FB7367E07A88FB7B42FA03F303F059
:101220000103002B5BD0BB7B334A32F813301AB278
:10123000FB7B012101FA03F31BB213431AB2BB7B00
:1012400091B22D4A22F813107B68DB68FA7B5200BA
:10125000032101FA02F2D2431340397EFA7B520095
:1012600001FA02F21A437B68DA607B681A68FB7B3A
:101270005B00032101FA03F3DB4313407978FA7B27
:10128000520001FA02F21A437B681A607B78012B44
:1012900002D07B78022B23D17B685B68FA7B01212B
:1012A00001FA02F292B2D24313403978FA7B01FA82
:1012B00002F292B21A437B685A607B689A68FB7BA1
:1012C0005B00032101FA03F3DB431340397FFA7B10
:1012D000520001FA02F21A437B689A6000E000BFF4
:1012E000FB7B0133FB73FB7B0F2B94D900BF00BF4B
:1012F0001037BD4680BD00BFDC00002080B584B043
:1013000000AF78600B467B80786800F049F90346AF
:10131000BB730023FB7327E07A88FB7B42FA03F35D
:1013200003F00103002B1CD07B681B68FA7B520082
:10133000032101FA02F21A437B681A60BB7B0E4A52
:1013400032F813301AB2FB7B012101FA03F31BB20E
:10135000DB431BB213401AB2BB7B91B2064A22F8A0
:101360001310FB7B0133FB73FB7B0F2BD4D900BF26
:1013700000BF1037BD4680BDDC00002080B485B0C2
:1013800000AF78600B467B800023FB7315E07A8802
:10139000FB7B42FA03F303F00103002B0AD07B68C6
:1013A0001B68FA7B5200032101FA02F2D2431A4071
:1013B0007B681A60FB7B0133FB73FB7B0F2BE6D949
:1013C00000BF00BF1437BD4680BC704780B485B0F5
:1013D00000AF78600B467B800023FB731BE07A88AC
:1013E000FB7B42FA03F303F00103002B10D07B6870
:1013F0001B68FA7B5200032101FA02F2D243134028
:10140000FA7B5200012101FA02F21A437B681A604A
:10141000FB7B0133FB73FB7B0F2BE0D900BF00BFCD
:101420001437BD4680BC704780B485B000AF78608B
:101430000B467B800023FB7314E07A88FB7B42FA27
:1014400003F303F00103002B09D07B681B68FA7BD0
:101450005200032101FA02F21A437B681A60FB7BF7
:101460000133FB73FB7B0F2BE7D900BF00BF1437A1
:10147000BD4680BC704780B485B000AF78600B4635
:101480007B800023FB731DE07A88FB7B42FA03F329
:1014900003F00103002B11D07B681B68FA7B52001C
:1014A000032101FA02F2D2431340FA7B52000221D7
:1014B00001FA02F21A437B681A6000E000BFFB7B6E
:1014C0000133FB73FB7B0F2BDED900BF00BF14374A
:1014D000BD4680BC704780B485B000AF78600B46D5
:1014E0007B8013467B700023FB731DE07A88FB7BB7
:1014F00042FA03F303F00103002B11D07B68DB6891
:10150000FA7B5200032101FA02F2D24313407978A8
:10151000FA7B520001FA02F21A437B68DA6000E0BB
:1015200000BFFB7B0133FB73FB7B0F2BDED900BFBE
:1015300000BF1437BD4680BC704780B485B000AF93
:1015400078600B467B807B8843F48033FB607B684C
:10155000FA68DA617A887B68DA617B68FA68DA614E
:101560007B68DB697B68DB6900BF1437BD4680BCE4
:10157000704780B485B000AF0346FB800023FB8139
:1015800005E0FB890133FB81FB885B08FB80FB885E
:10159000012BF6D8FB8918461437BD4680BC70472E
:1015A00080B483B000AF78607B6803F13F4303F5FC
:1015B0007E039B0A9BB218460C37BD4680BC704721
:1015C00080B582B000AF78607868FFF7E9FF034626
:1015D0001A46012303FA02F2044B1B6B1146034A1D
:1015E0000B43136300BF0837BD4680BD003802407F
:1015F00080B582B000AF78607868FFF7D1FF03460E
:101600001A4601239340DA43044B1B6B1146034AED
:101610000B40136300BF0837BD4680BD0038024051
:1016200080B582B000AF78607868FFF7B9FF0346F5
:101630001A46034B33F8123018460837BD4680BDB2
:10164000DC00002080B582B000AF78607868FFF7DA
:10165000A7FF03461A46044B33F81230DB439BB214
:1016600018460837BD4680BDDC00002069646C6503
:101670005F7461736B0000007461736B315F68614C
:101680006E646C65720000007461736B325F686138
:101690006E646C6572000000486172644661756C2E
:1016A000740D0A004D656D4D616E6167650D0A0030
:1016B0004275734661756C740D0A0000557361675D
:0C16C000654661756C740D0A00000000A6
:0416CC000100000019
:0416D0001400000002
:020000042000DA
:0400000000000000FC
:04000005080004BD2E
:00000001FF
