:020000040800F2
:1000000000000120650A00080B0B0008110B000816
:10001000170B00081D0B0008230B00080000000050
:10002000000000000000000000000000290B000894
:100030002F0B000800000000350B00083B0B0008E8
:10004000470B0008530B00085F0B00086B0B000800
:10005000770B0008830B00088F0B00089B0B000830
:10006000A70B0008B30B0008BF0B0008CB0B000860
:10007000D70B0008E30B0008EF0B0008FB0B000890
:10008000070C0008130C00081F0C00082B0C0008BC
:10009000370C0008430C00084F0C00085B0C0008EC
:1000A000670C0008730C00087F0C00088B0C00081C
:1000B000970C0008A30C0008AF0C0008BB0C00084C
:1000C000C70C0008D30C0008DF0C0008EB0C00087C
:1000D000F70C0008030D00080F0D00081B0D0008A9
:1000E000270D0008330D00083F0D00084B0D0008D8
:1000F000570D0008630D00086F0D00087B0D000808
:10010000870D0008930D00089F0D0008AB0D000837
:10011000B70D0008C30D0008CF0D0008DB0D000867
:10012000E70D0008F30D0008FF0D00080B0E000896
:10013000170E0008230E00082F0E00083B0E0008C3
:10014000470E0008530E00085F0E00086B0E0008F3
:10015000770E0008830E00088F0E00089B0E000823
:10016000A70E0008B30E0008BF0E0008CB0E000853
:10017000D70E0008E30E0008EF0E0008FB0E000883
:10018000070F0008130F0008000000001F0F0008F1
:1001900000000000000000002B0F0008000000001D
:1001A0000000000000000000370F0008430F0008A7
:1001B0004F0F00085B0F0008670F0008730F00085F
:1001C00080B584B002AF7860084611461A460346EF
:1001D0007B800B467B7013463B70786800F067F8B5
:1001E0000346002B0BD038787A7879883B7D0193D1
:1001F0003B7C00930346786800F0B4F800E000BF51
:100200000837BD4680BD80B586B002AF786008462D
:1002100011461A4603467B800B467B7013463B70A3
:10022000786800F044F80346002B3CD00023FB60C4
:100230002AE07A88FB6842FA03F303F00103002BFB
:100240001ED0FB68DA087B68083253F82230FA685F
:1002500002F0070292000F2101FA02F2D24313408A
:10026000397FFA6802F00702920001FA02F21146A1
:10027000FA68D20819437B68083243F8221000E07C
:1002800000BFFB680133FB60FB680F2BD1D97A7884
:1002900079883B7E01933B7800931346022278686D
:1002A00000F060F800E000BF1037BD4680BD80B5AB
:1002B00082B000AF78607B68224A934203D1214824
:1002C00000F03AFA39E07B681F4A934203D11E4896
:1002D00000F032FA31E07B681C4A934203D11B489C
:1002E00000F02AFA29E07B68194A934203D11848A2
:1002F00000F022FA21E07B68164A934203D11548A8
:1003000000F01AFA19E07B68134A934203D11248AD
:1003100000F012FA11E07B68104A934203D10F48B3
:1003200000F00AFA09E07B680D4A934203D10C48B9
:1003300000F002FA01E0002300E00123184608372C
:10034000BD4680BD0000024000040240000802409B
:10035000000C02400010024000140240001802404D
:10036000001C024080B584B000AF7860084611469A
:100370001A4603467B800B467B7013463B707868B9
:1003800000F0CAF90346BB730023FB7367E07A8869
:10039000FB7B42FA03F303F00103002B5BD0BB7B32
:1003A000334A32F813301AB2FB7B012101FA03F30E
:1003B0001BB213431AB2BB7B91B22D4A22F8131021
:1003C0007B68DB68FA7B5200032101FA02F2D24318
:1003D0001340397EFA7B520001FA02F21A437B681D
:1003E000DA607B681A68FB7B5B00032101FA03F388
:1003F000DB4313407978FA7B520001FA02F21A4388
:100400007B681A607B78012B02D07B78022B23D18A
:100410007B685B68FA7B012101FA02F292B2D24357
:1004200013403978FA7B01FA02F292B21A437B68E0
:100430005A607B689A68FB7B5B00032101FA03F337
:10044000DB431340397FFA7B520001FA02F21A4370
:100450007B689A6000E000BFFB7B0133FB73FB7B92
:100460000F2B94D900BF00BF1037BD4680BD00BF21
:100470001000002080B584B000AF78600B467B8010
:10048000786800F049F90346BB730023FB7327E04B
:100490007A88FB7B42FA03F303F00103002B1CD0A4
:1004A0007B681B68FA7B5200032101FA02F21A43AF
:1004B0007B681A60BB7B0E4A32F813301AB2FB7BA2
:1004C000012101FA03F31BB2DB431BB213401AB242
:1004D000BB7B91B2064A22F81310FB7B0133FB73FE
:1004E000FB7B0F2BD4D900BF00BF1037BD4680BDAA
:1004F0001000002080B485B000AF78600B467B8090
:100500000023FB7315E07A88FB7B42FA03F303F0C8
:100510000103002B0AD07B681B68FA7B5200032181
:1005200001FA02F2D2431A407B681A60FB7B013366
:10053000FB73FB7B0F2BE6D900BF00BF1437BD4612
:1005400080BC704780B485B000AF78600B467B807C
:100550000023FB731BE07A88FB7B42FA03F303F072
:100560000103002B10D07B681B68FA7B520003212B
:1005700001FA02F2D2431340FA7B5200012101FA40
:1005800002F21A437B681A60FB7B0133FB73FB7B2F
:100590000F2BE0D900BF00BF1437BD4680BC7047A9
:1005A00080B485B000AF78600B467B800023FB737E
:1005B00014E07A88FB7B42FA03F303F00103002B7B
:1005C00009D07B681B68FA7B5200032101FA02F212
:1005D0001A437B681A60FB7B0133FB73FB7B0F2B99
:1005E000E7D900BF00BF1437BD4680BC704780B458
:1005F00085B000AF78600B467B800023FB731DE065
:100600007A88FB7B42FA03F303F00103002B11D03D
:100610007B681B68FA7B5200032101FA02F2D24385
:100620001340FA7B5200022101FA02F21A437B685E
:100630001A6000E000BFFB7B0133FB73FB7B0F2BD9
:10064000DED900BF00BF1437BD4680BC704780B400
:1006500085B000AF78600B467B8013467B7000232B
:10066000FB731DE07A88FB7B42FA03F303F001037E
:10067000002B11D07B68DB68FA7B5200032101FA62
:1006800002F2D24313407978FA7B520001FA02F267
:100690001A437B68DA6000E000BFFB7B0133FB7329
:1006A000FB7B0F2BDED900BF00BF1437BD4680BCDB
:1006B000704780B485B000AF78600B467B807B8844
:1006C00043F48033FB607B68FA68DA617A887B6880
:1006D000DA617B68FA68DA617B68DB697B68DB6911
:1006E00000BF1437BD4680BC704780B485B000AFF2
:1006F0000346FB800023FB8105E0FB890133FB817E
:10070000FB885B08FB80FB88012BF6D8FB89184629
:100710001437BD4680BC704780B483B000AF7860AA
:100720007B6803F13F4303F57E039B0A9BB21846A7
:100730000C37BD4680BC704780B582B000AF786092
:100740007868FFF7E9FF03461A46012303FA02F22D
:10075000044B1B6B1146034A0B43136300BF08375E
:10076000BD4680BD0038024080B582B000AF7860E1
:100770007868FFF7D1FF03461A4601239340DA4316
:10078000044B1B6B1146034A0B40136300BF083731
:10079000BD4680BD0038024080B582B000AF7860B1
:1007A0007868FFF7B9FF03461A46034B33F8123057
:1007B00018460837BD4680BD1000002080B582B0C5
:1007C00000AF78607868FFF7A7FF03461A46044B2E
:1007D00033F81230DB439BB218460837BD4680BD64
:1007E0001000002080B485B000AF0F4B7B607B68A9
:1007F000BB60BB68FB6000233B600BE0FB68013B18
:10080000FB60BB68013BBB607B68013B7B603B6876
:1008100001333B603B68054A9342EFD900BF00BFFC
:100820001437BD4680BC704720A107009F86010099
:1008300080B500AF00F022F8044B5B69034A83F4F3
:1008400000535361FFF7CEFFF6E700BF00080240F8
:1008500080B483B000AF00237B6002E07B6801338B
:100860007B607B68044A9342F8D900BF00BF0C3715
:10087000BD4680BC704700BF8FD0030080B584B0F8
:1008800002AF0323019300230093002301224FF4BE
:1008900000511148FFF794FC0023FB710AE00E4B56
:1008A0005B690D4A83F400535361FFF7D1FFFB7975
:1008B0000133FB71FB79092BF1D9FB790133FB7112
:1008C000FB790133FB71FB790A21184600F058FBD4
:1008D00000BF0837BD4680BD0008024080B400AFAD
:1008E000274B1B68264A43F00103136000BF244BCB
:1008F0001B6803F00203002BF9D0214B1B6C204A2C
:1009000043F0805313641F4B1B681E4A43F440435B
:1009100013601D4B40F205721A60194B184A9B6810
:100920009360174B9B68164A43F4A0539360144B93
:100930009B68134A43F400439360114B42F60852FC
:100940005A600F4B1B680E4A43F08073136000BF60
:100950000B4B1B6803F00073002BF9D0084B9B680E
:10096000074A43F00203936000BF054B9B6803F006
:100970000C03082BF9D100BF00BFBD4680BC7047F7
:100980000038024000700040003C024080B582B058
:1009900000AF164A164BD31A9B103B6000237B60B6
:1009A00007E0134A7B6852F8233098477B6801338D
:1009B0007B607A683B689A42F3D30E4A0E4BD31A97
:1009C0009B103B6000237B6007E00B4A7B6852F87A
:1009D000233098477B6801337B607A683B689A4292
:1009E000F3D300BF00BF0837BD4680BDAC0F000881
:1009F000AC0F0008AC0F0008AC0F000880B485B045
:100A000000AF786039600023FB600FE000BF0C4B43
:100A10001B6803F08003002BF9D07B685A1C7A60B6
:100A20001A78074B5A60FB680133FB60FA683B6831
:100A30009A42EBDB3B6818461437BD4680BC7047D2
:100A40000044004080B483B000AF786000BF7B6892
:100A50005A1E7A60002BFAD100BF00BF0C37BD468A
:100A600080BC704780B586B000AF1F4B83F3088809
:100A70001E4A1F4BD31A7B601D4B7B611D4B3B6194
:100A80000023FB600AE03A69531C3B617B69591CF7
:100A9000796112781A70FB680133FB60FA687B6831
:100AA0009A42F0D3144A154BD31A7B60134B7B61E7
:100AB0000023BB6007E07B695A1C7A6100221A7030
:100AC000BB680133BB60BA687B689A42F3D3FFF717
:100AD0005DFF0B4B4FF000629A60FFF7A9FE00BF6D
:100AE0001837BD4680BD00BFE0FF00201000002089
:100AF00008000020AC0F0008340000201000002087
:100B000000ED00E080B400AFFEE780B400AFFEE788
:100B100080B400AFFEE780B400AFFEE780B400AF62
:100B2000FEE780B400AFFEE780B400AFFEE780B41C
:100B300000AFFEE780B400AFFEE780B400AF00BFB7
:100B4000BD4680BC704780B400AF00BFBD4680BCCE
:100B5000704780B400AF00BFBD4680BC704780B412
:100B600000AF00BFBD4680BC704780B400AF00BF7F
:100B7000BD4680BC704780B400AF00BFBD4680BC9E
:100B8000704780B400AF00BFBD4680BC704780B4E2
:100B900000AF00BFBD4680BC704780B400AF00BF4F
:100BA000BD4680BC704780B400AF00BFBD4680BC6E
:100BB000704780B400AF00BFBD4680BC704780B4B2
:100BC00000AF00BFBD4680BC704780B400AF00BF1F
:100BD000BD4680BC704780B400AF00BFBD4680BC3E
:100BE000704780B400AF00BFBD4680BC704780B482
:100BF00000AF00BFBD4680BC704780B400AF00BFEF
:100C0000BD4680BC704780B400AF00BFBD4680BC0D
:100C1000704780B400AF00BFBD4680BC704780B451
:100C200000AF00BFBD4680BC704780B400AF00BFBE
:100C3000BD4680BC704780B400AF00BFBD4680BCDD
:100C4000704780B400AF00BFBD4680BC704780B421
:100C500000AF00BFBD4680BC704780B400AF00BF8E
:100C6000BD4680BC704780B400AF00BFBD4680BCAD
:100C7000704780B400AF00BFBD4680BC704780B4F1
:100C800000AF00BFBD4680BC704780B400AF00BF5E
:100C9000BD4680BC704780B400AF00BFBD4680BC7D
:100CA000704780B400AF00BFBD4680BC704780B4C1
:100CB00000AF00BFBD4680BC704780B400AF00BF2E
:100CC000BD4680BC704780B400AF00BFBD4680BC4D
:100CD000704780B400AF00BFBD4680BC704780B491
:100CE00000AF00BFBD4680BC704780B400AF00BFFE
:100CF000BD4680BC704780B400AF00BFBD4680BC1D
:100D0000704780B400AF00BFBD4680BC704780B460
:100D100000AF00BFBD4680BC704780B400AF00BFCD
:100D2000BD4680BC704780B400AF00BFBD4680BCEC
:100D3000704780B400AF00BFBD4680BC704780B430
:100D400000AF00BFBD4680BC704780B400AF00BF9D
:100D5000BD4680BC704780B400AF00BFBD4680BCBC
:100D6000704780B400AF00BFBD4680BC704780B400
:100D700000AF00BFBD4680BC704780B400AF00BF6D
:100D8000BD4680BC704780B400AF00BFBD4680BC8C
:100D9000704780B400AF00BFBD4680BC704780B4D0
:100DA00000AF00BFBD4680BC704780B400AF00BF3D
:100DB000BD4680BC704780B400AF00BFBD4680BC5C
:100DC000704780B400AF00BFBD4680BC704780B4A0
:100DD00000AF00BFBD4680BC704780B400AF00BF0D
:100DE000BD4680BC704780B400AF00BFBD4680BC2C
:100DF000704780B400AF00BFBD4680BC704780B470
:100E000000AF00BFBD4680BC704780B400AF00BFDC
:100E1000BD4680BC704780B400AF00BFBD4680BCFB
:100E2000704780B400AF00BFBD4680BC704780B43F
:100E300000AF00BFBD4680BC704780B400AF00BFAC
:100E4000BD4680BC704780B400AF00BFBD4680BCCB
:100E5000704780B400AF00BFBD4680BC704780B40F
:100E600000AF00BFBD4680BC704780B400AF00BF7C
:100E7000BD4680BC704780B400AF00BFBD4680BC9B
:100E8000704780B400AF00BFBD4680BC704780B4DF
:100E900000AF00BFBD4680BC704780B400AF00BF4C
:100EA000BD4680BC704780B400AF00BFBD4680BC6B
:100EB000704780B400AF00BFBD4680BC704780B4AF
:100EC00000AF00BFBD4680BC704780B400AF00BF1C
:100ED000BD4680BC704780B400AF00BFBD4680BC3B
:100EE000704780B400AF00BFBD4680BC704780B47F
:100EF00000AF00BFBD4680BC704780B400AF00BFEC
:100F0000BD4680BC704780B400AF00BFBD4680BC0A
:100F1000704780B400AF00BFBD4680BC704780B44E
:100F200000AF00BFBD4680BC704780B400AF00BFBB
:100F3000BD4680BC704780B400AF00BFBD4680BCDA
:100F4000704780B400AF00BFBD4680BC704780B41E
:100F500000AF00BFBD4680BC704780B400AF00BF8B
:100F6000BD4680BC704780B400AF00BFBD4680BCAA
:100F7000704780B400AF00BFBD4680BC704700BF63
:100F800080B483B000AF78603960074B00221A60EC
:100F90007A683B689A4202D0034B01221A6000BF74
:0C0FA0000C37BD4680BC704704000020E8
:080FAC000A000000140000001F
:020000042000DA
:0400040000000000F8
:0400000508000A6580
:00000001FF
